{
  "_format": "hh-sol-artifact-1",
  "contractName": "MyNFT",
  "sourceName": "contracts/MyNFT.sol",
  "abi": [
    {
      "inputs": [
        {
          "internalType": "uint256",
          "name": "_maxSupply",
          "type": "uint256"
        }
      ],
      "stateMutability": "nonpayable",
      "type": "constructor"
    },
    {
      "anonymous": false,
      "inputs": [
        {
          "indexed": true,
          "internalType": "address",
          "name": "owner",
          "type": "address"
        },
        {
          "indexed": true,
          "internalType": "address",
          "name": "approved",
          "type": "address"
        },
        {
          "indexed": true,
          "internalType": "uint256",
          "name": "tokenId",
          "type": "uint256"
        }
      ],
      "name": "Approval",
      "type": "event"
    },
    {
      "anonymous": false,
      "inputs": [
        {
          "indexed": true,
          "internalType": "address",
          "name": "owner",
          "type": "address"
        },
        {
          "indexed": true,
          "internalType": "address",
          "name": "operator",
          "type": "address"
        },
        {
          "indexed": false,
          "internalType": "bool",
          "name": "approved",
          "type": "bool"
        }
      ],
      "name": "ApprovalForAll",
      "type": "event"
    },
    {
      "anonymous": false,
      "inputs": [
        {
          "indexed": false,
          "internalType": "uint256",
          "name": "_fromTokenId",
          "type": "uint256"
        },
        {
          "indexed": false,
          "internalType": "uint256",
          "name": "_toTokenId",
          "type": "uint256"
        }
      ],
      "name": "BatchMetadataUpdate",
      "type": "event"
    },
    {
      "anonymous": false,
      "inputs": [
        {
          "indexed": false,
          "internalType": "uint256",
          "name": "_tokenId",
          "type": "uint256"
        }
      ],
      "name": "MetadataUpdate",
      "type": "event"
    },
    {
      "anonymous": false,
      "inputs": [
        {
          "indexed": true,
          "internalType": "address",
          "name": "previousOwner",
          "type": "address"
        },
        {
          "indexed": true,
          "internalType": "address",
          "name": "newOwner",
          "type": "address"
        }
      ],
      "name": "OwnershipTransferred",
      "type": "event"
    },
    {
      "anonymous": false,
      "inputs": [
        {
          "indexed": true,
          "internalType": "address",
          "name": "from",
          "type": "address"
        },
        {
          "indexed": true,
          "internalType": "address",
          "name": "to",
          "type": "address"
        },
        {
          "indexed": true,
          "internalType": "uint256",
          "name": "tokenId",
          "type": "uint256"
        }
      ],
      "name": "Transfer",
      "type": "event"
    },
    {
      "inputs": [
        {
          "internalType": "address",
          "name": "to",
          "type": "address"
        },
        {
          "internalType": "uint256",
          "name": "tokenId",
          "type": "uint256"
        }
      ],
      "name": "approve",
      "outputs": [],
      "stateMutability": "nonpayable",
      "type": "function"
    },
    {
      "inputs": [
        {
          "internalType": "address",
          "name": "owner",
          "type": "address"
        }
      ],
      "name": "balanceOf",
      "outputs": [
        {
          "internalType": "uint256",
          "name": "",
          "type": "uint256"
        }
      ],
      "stateMutability": "view",
      "type": "function"
    },
    {
      "inputs": [
        {
          "internalType": "uint256",
          "name": "tokenId",
          "type": "uint256"
        },
        {
          "internalType": "string",
          "name": "newImageURI",
          "type": "string"
        }
      ],
      "name": "changeImage",
      "outputs": [],
      "stateMutability": "nonpayable",
      "type": "function"
    },
    {
      "inputs": [
        {
          "internalType": "uint256",
          "name": "tokenId",
          "type": "uint256"
        }
      ],
      "name": "getApproved",
      "outputs": [
        {
          "internalType": "address",
          "name": "",
          "type": "address"
        }
      ],
      "stateMutability": "view",
      "type": "function"
    },
    {
      "inputs": [
        {
          "internalType": "uint256",
          "name": "tokenId",
          "type": "uint256"
        }
      ],
      "name": "getTokenImage",
      "outputs": [
        {
          "internalType": "string",
          "name": "",
          "type": "string"
        }
      ],
      "stateMutability": "view",
      "type": "function"
    },
    {
      "inputs": [
        {
          "internalType": "address",
          "name": "owner",
          "type": "address"
        },
        {
          "internalType": "address",
          "name": "operator",
          "type": "address"
        }
      ],
      "name": "isApprovedForAll",
      "outputs": [
        {
          "internalType": "bool",
          "name": "",
          "type": "bool"
        }
      ],
      "stateMutability": "view",
      "type": "function"
    },
    {
      "inputs": [],
      "name": "maxSupply",
      "outputs": [
        {
          "internalType": "uint256",
          "name": "",
          "type": "uint256"
        }
      ],
      "stateMutability": "view",
      "type": "function"
    },
    {
      "inputs": [
        {
          "internalType": "address",
          "name": "recipient",
          "type": "address"
        },
        {
          "internalType": "string",
          "name": "tokenURI",
          "type": "string"
        },
        {
          "internalType": "string",
          "name": "imageURI",
          "type": "string"
        }
      ],
      "name": "mintNFT",
      "outputs": [
        {
          "internalType": "uint256",
          "name": "",
          "type": "uint256"
        }
      ],
      "stateMutability": "nonpayable",
      "type": "function"
    },
    {
      "inputs": [],
      "name": "name",
      "outputs": [
        {
          "internalType": "string",
          "name": "",
          "type": "string"
        }
      ],
      "stateMutability": "view",
      "type": "function"
    },
    {
      "inputs": [],
      "name": "owner",
      "outputs": [
        {
          "internalType": "address",
          "name": "",
          "type": "address"
        }
      ],
      "stateMutability": "view",
      "type": "function"
    },
    {
      "inputs": [
        {
          "internalType": "uint256",
          "name": "tokenId",
          "type": "uint256"
        }
      ],
      "name": "ownerOf",
      "outputs": [
        {
          "internalType": "address",
          "name": "",
          "type": "address"
        }
      ],
      "stateMutability": "view",
      "type": "function"
    },
    {
      "inputs": [],
      "name": "renounceOwnership",
      "outputs": [],
      "stateMutability": "nonpayable",
      "type": "function"
    },
    {
      "inputs": [
        {
          "internalType": "address",
          "name": "from",
          "type": "address"
        },
        {
          "internalType": "address",
          "name": "to",
          "type": "address"
        },
        {
          "internalType": "uint256",
          "name": "tokenId",
          "type": "uint256"
        }
      ],
      "name": "safeTransferFrom",
      "outputs": [],
      "stateMutability": "nonpayable",
      "type": "function"
    },
    {
      "inputs": [
        {
          "internalType": "address",
          "name": "from",
          "type": "address"
        },
        {
          "internalType": "address",
          "name": "to",
          "type": "address"
        },
        {
          "internalType": "uint256",
          "name": "tokenId",
          "type": "uint256"
        },
        {
          "internalType": "bytes",
          "name": "data",
          "type": "bytes"
        }
      ],
      "name": "safeTransferFrom",
      "outputs": [],
      "stateMutability": "nonpayable",
      "type": "function"
    },
    {
      "inputs": [
        {
          "internalType": "address",
          "name": "operator",
          "type": "address"
        },
        {
          "internalType": "bool",
          "name": "approved",
          "type": "bool"
        }
      ],
      "name": "setApprovalForAll",
      "outputs": [],
      "stateMutability": "nonpayable",
      "type": "function"
    },
    {
      "inputs": [
        {
          "internalType": "bytes4",
          "name": "interfaceId",
          "type": "bytes4"
        }
      ],
      "name": "supportsInterface",
      "outputs": [
        {
          "internalType": "bool",
          "name": "",
          "type": "bool"
        }
      ],
      "stateMutability": "view",
      "type": "function"
    },
    {
      "inputs": [],
      "name": "symbol",
      "outputs": [
        {
          "internalType": "string",
          "name": "",
          "type": "string"
        }
      ],
      "stateMutability": "view",
      "type": "function"
    },
    {
      "inputs": [
        {
          "internalType": "uint256",
          "name": "tokenId",
          "type": "uint256"
        }
      ],
      "name": "tokenURI",
      "outputs": [
        {
          "internalType": "string",
          "name": "",
          "type": "string"
        }
      ],
      "stateMutability": "view",
      "type": "function"
    },
    {
      "inputs": [
        {
          "internalType": "address",
          "name": "from",
          "type": "address"
        },
        {
          "internalType": "address",
          "name": "to",
          "type": "address"
        },
        {
          "internalType": "uint256",
          "name": "tokenId",
          "type": "uint256"
        }
      ],
      "name": "transferFrom",
      "outputs": [],
      "stateMutability": "nonpayable",
      "type": "function"
    },
    {
      "inputs": [
        {
          "internalType": "address",
          "name": "newOwner",
          "type": "address"
        }
      ],
      "name": "transferOwnership",
      "outputs": [],
      "stateMutability": "nonpayable",
      "type": "function"
    }
  ],
  "bytecode": "0x60806040523480156200001157600080fd5b50604051620033ed380380620033ed83398181016040528101906200003791906200029a565b6040518060400160405280600581526020017f4d794e46540000000000000000000000000000000000000000000000000000008152506040518060400160405280600481526020017f4d4e4654000000000000000000000000000000000000000000000000000000008152508160009080519060200190620000bb929190620001d3565b508060019080519060200190620000d4929190620001d3565b505050620000f7620000eb6200010560201b60201c565b6200010d60201b60201c565b80600981905550506200035a565b600033905090565b6000600760009054906101000a900473ffffffffffffffffffffffffffffffffffffffff16905081600760006101000a81548173ffffffffffffffffffffffffffffffffffffffff021916908373ffffffffffffffffffffffffffffffffffffffff1602179055508173ffffffffffffffffffffffffffffffffffffffff168173ffffffffffffffffffffffffffffffffffffffff167f8be0079c531659141344cd1fd0a4f28419497f9722a3daafe3b4186f6b6457e060405160405180910390a35050565b828054620001e190620002d6565b90600052602060002090601f01602090048101928262000205576000855562000251565b82601f106200022057805160ff191683800117855562000251565b8280016001018555821562000251579182015b828111156200025057825182559160200191906001019062000233565b5b50905062000260919062000264565b5090565b5b808211156200027f57600081600090555060010162000265565b5090565b600081519050620002948162000340565b92915050565b600060208284031215620002b357620002b26200033b565b5b6000620002c38482850162000283565b91505092915050565b6000819050919050565b60006002820490506001821680620002ef57607f821691505b602082108114156200030657620003056200030c565b5b50919050565b7f4e487b7100000000000000000000000000000000000000000000000000000000600052602260045260246000fd5b600080fd5b6200034b81620002cc565b81146200035757600080fd5b50565b613083806200036a6000396000f3fe608060405234801561001057600080fd5b506004361061012c5760003560e01c806371f0442e116100ad578063b88d4fde11610071578063b88d4fde14610341578063c87b56dd1461035d578063d5abeb011461038d578063e985e9c5146103ab578063f2fde38b146103db5761012c565b806371f0442e146102895780638da5cb5b146102b957806395d89b41146102d7578063a22cb465146102f5578063a3ee38ae146103115761012c565b806323b872dd116100f457806323b872dd146101e757806342842e0e146102035780636352211e1461021f57806370a082311461024f578063715018a61461027f5761012c565b806301ffc9a71461013157806306fdde0314610161578063081812fc1461017f578063095ea7b3146101af5780631cb9fd63146101cb575b600080fd5b61014b600480360381019061014691906122b0565b6103f7565b604051610158919061271e565b60405180910390f35b610169610458565b6040516101769190612739565b60405180910390f35b6101996004803603810190610194919061230a565b6104ea565b6040516101a691906126b7565b60405180910390f35b6101c960048036038101906101c49190612270565b610530565b005b6101e560048036038101906101e09190612337565b610648565b005b61020160048036038101906101fc91906120cf565b6106c8565b005b61021d600480360381019061021891906120cf565b610728565b005b6102396004803603810190610234919061230a565b610748565b60405161024691906126b7565b60405180910390f35b61026960048036038101906102649190612062565b6107cf565b604051610276919061295b565b60405180910390f35b610287610887565b005b6102a3600480360381019061029e919061230a565b61089b565b6040516102b09190612739565b60405180910390f35b6102c161098c565b6040516102ce91906126b7565b60405180910390f35b6102df6109b6565b6040516102ec9190612739565b60405180910390f35b61030f600480360381019061030a91906121a5565b610a48565b005b61032b600480360381019061032691906121e5565b610a5e565b604051610338919061295b565b60405180910390f35b61035b60048036038101906103569190612122565b610b14565b005b6103776004803603810190610372919061230a565b610b76565b6040516103849190612739565b60405180910390f35b610395610c89565b6040516103a2919061295b565b60405180910390f35b6103c560048036038101906103c0919061208f565b610c8f565b6040516103d2919061271e565b60405180910390f35b6103f560048036038101906103f09190612062565b610d23565b005b6000634906490660e01b7bffffffffffffffffffffffffffffffffffffffffffffffffffffffff1916827bffffffffffffffffffffffffffffffffffffffffffffffffffffffff19161480610451575061045082610da7565b5b9050919050565b60606000805461046790612af6565b80601f016020809104026020016040519081016040528092919081815260200182805461049390612af6565b80156104e05780601f106104b5576101008083540402835291602001916104e0565b820191906000526020600020905b8154815290600101906020018083116104c357829003601f168201915b5050505050905090565b60006104f582610e89565b6004600083815260200190815260200160002060009054906101000a900473ffffffffffffffffffffffffffffffffffffffff169050919050565b600061053b82610748565b90508073ffffffffffffffffffffffffffffffffffffffff168373ffffffffffffffffffffffffffffffffffffffff1614156105ac576040517f08c379a00000000000000000000000000000000000000000000000000000000081526004016105a3906128fb565b60405180910390fd5b8073ffffffffffffffffffffffffffffffffffffffff166105cb610ed4565b73ffffffffffffffffffffffffffffffffffffffff1614806105fa57506105f9816105f4610ed4565b610c8f565b5b610639576040517f08c379a00000000000000000000000000000000000000000000000000000000081526004016106309061291b565b60405180910390fd5b6106438383610edc565b505050565b610650610f95565b61065a6008611013565b82111561069c576040517f08c379a00000000000000000000000000000000000000000000000000000000081526004016106939061283b565b60405180910390fd5b80600a600084815260200190815260200160002090805190602001906106c3929190611e76565b505050565b6106d96106d3610ed4565b82611021565b610718576040517f08c379a000000000000000000000000000000000000000000000000000000000815260040161070f9061275b565b60405180910390fd5b6107238383836110b6565b505050565b61074383838360405180602001604052806000815250610b14565b505050565b600080610754836113b0565b9050600073ffffffffffffffffffffffffffffffffffffffff168173ffffffffffffffffffffffffffffffffffffffff1614156107c6576040517f08c379a00000000000000000000000000000000000000000000000000000000081526004016107bd906128db565b60405180910390fd5b80915050919050565b60008073ffffffffffffffffffffffffffffffffffffffff168273ffffffffffffffffffffffffffffffffffffffff161415610840576040517f08c379a00000000000000000000000000000000000000000000000000000000081526004016108379061285b565b60405180910390fd5b600360008373ffffffffffffffffffffffffffffffffffffffff1673ffffffffffffffffffffffffffffffffffffffff168152602001908152602001600020549050919050565b61088f610f95565b61089960006113ed565b565b60606108a76008611013565b8211156108e9576040517f08c379a00000000000000000000000000000000000000000000000000000000081526004016108e09061283b565b60405180910390fd5b600a6000838152602001908152602001600020805461090790612af6565b80601f016020809104026020016040519081016040528092919081815260200182805461093390612af6565b80156109805780601f1061095557610100808354040283529160200191610980565b820191906000526020600020905b81548152906001019060200180831161096357829003601f168201915b50505050509050919050565b6000600760009054906101000a900473ffffffffffffffffffffffffffffffffffffffff16905090565b6060600180546109c590612af6565b80601f01602080910402602001604051908101604052809291908181526020018280546109f190612af6565b8015610a3e5780601f10610a1357610100808354040283529160200191610a3e565b820191906000526020600020905b815481529060010190602001808311610a2157829003601f168201915b5050505050905090565b610a5a610a53610ed4565b83836114b3565b5050565b6000610a68610f95565b600954610a756008611013565b10610ab5576040517f08c379a0000000000000000000000000000000000000000000000000000000008152600401610aac9061293b565b60405180910390fd5b610abf6008611620565b6000610acb6008611013565b9050610ad78582611636565b610ae18185611854565b82600a60008381526020019081526020016000209080519060200190610b08929190611e76565b50809150509392505050565b610b25610b1f610ed4565b83611021565b610b64576040517f08c379a0000000000000000000000000000000000000000000000000000000008152600401610b5b9061275b565b60405180910390fd5b610b70848484846118ff565b50505050565b6060610b8182610e89565b6000600660008481526020019081526020016000208054610ba190612af6565b80601f0160208091040260200160405190810160405280929190818152602001828054610bcd90612af6565b8015610c1a5780601f10610bef57610100808354040283529160200191610c1a565b820191906000526020600020905b815481529060010190602001808311610bfd57829003601f168201915b505050505090506000610c2b61195b565b9050600081511415610c41578192505050610c84565b600082511115610c76578082604051602001610c5e929190612693565b60405160208183030381529060405292505050610c84565b610c7f84611972565b925050505b919050565b60095481565b6000600560008473ffffffffffffffffffffffffffffffffffffffff1673ffffffffffffffffffffffffffffffffffffffff16815260200190815260200160002060008373ffffffffffffffffffffffffffffffffffffffff1673ffffffffffffffffffffffffffffffffffffffff16815260200190815260200160002060009054906101000a900460ff16905092915050565b610d2b610f95565b600073ffffffffffffffffffffffffffffffffffffffff168173ffffffffffffffffffffffffffffffffffffffff161415610d9b576040517f08c379a0000000000000000000000000000000000000000000000000000000008152600401610d929061279b565b60405180910390fd5b610da4816113ed565b50565b60007f80ac58cd000000000000000000000000000000000000000000000000000000007bffffffffffffffffffffffffffffffffffffffffffffffffffffffff1916827bffffffffffffffffffffffffffffffffffffffffffffffffffffffff19161480610e7257507f5b5e139f000000000000000000000000000000000000000000000000000000007bffffffffffffffffffffffffffffffffffffffffffffffffffffffff1916827bffffffffffffffffffffffffffffffffffffffffffffffffffffffff1916145b80610e825750610e81826119da565b5b9050919050565b610e9281611a44565b610ed1576040517f08c379a0000000000000000000000000000000000000000000000000000000008152600401610ec8906128db565b60405180910390fd5b50565b600033905090565b816004600083815260200190815260200160002060006101000a81548173ffffffffffffffffffffffffffffffffffffffff021916908373ffffffffffffffffffffffffffffffffffffffff160217905550808273ffffffffffffffffffffffffffffffffffffffff16610f4f83610748565b73ffffffffffffffffffffffffffffffffffffffff167f8c5be1e5ebec7d5bd14f71427d1e84f3dd0314c0f7b2291e5b200ac8c7c3b92560405160405180910390a45050565b610f9d610ed4565b73ffffffffffffffffffffffffffffffffffffffff16610fbb61098c565b73ffffffffffffffffffffffffffffffffffffffff1614611011576040517f08c379a0000000000000000000000000000000000000000000000000000000008152600401611008906128bb565b60405180910390fd5b565b600081600001549050919050565b60008061102d83610748565b90508073ffffffffffffffffffffffffffffffffffffffff168473ffffffffffffffffffffffffffffffffffffffff16148061106f575061106e8185610c8f565b5b806110ad57508373ffffffffffffffffffffffffffffffffffffffff16611095846104ea565b73ffffffffffffffffffffffffffffffffffffffff16145b91505092915050565b8273ffffffffffffffffffffffffffffffffffffffff166110d682610748565b73ffffffffffffffffffffffffffffffffffffffff161461112c576040517f08c379a0000000000000000000000000000000000000000000000000000000008152600401611123906127bb565b60405180910390fd5b600073ffffffffffffffffffffffffffffffffffffffff168273ffffffffffffffffffffffffffffffffffffffff16141561119c576040517f08c379a0000000000000000000000000000000000000000000000000000000008152600401611193906127fb565b60405180910390fd5b6111a98383836001611a85565b8273ffffffffffffffffffffffffffffffffffffffff166111c982610748565b73ffffffffffffffffffffffffffffffffffffffff161461121f576040517f08c379a0000000000000000000000000000000000000000000000000000000008152600401611216906127bb565b60405180910390fd5b6004600082815260200190815260200160002060006101000a81549073ffffffffffffffffffffffffffffffffffffffff02191690556001600360008573ffffffffffffffffffffffffffffffffffffffff1673ffffffffffffffffffffffffffffffffffffffff168152602001908152602001600020600082825403925050819055506001600360008473ffffffffffffffffffffffffffffffffffffffff1673ffffffffffffffffffffffffffffffffffffffff16815260200190815260200160002060008282540192505081905550816002600083815260200190815260200160002060006101000a81548173ffffffffffffffffffffffffffffffffffffffff021916908373ffffffffffffffffffffffffffffffffffffffff160217905550808273ffffffffffffffffffffffffffffffffffffffff168473ffffffffffffffffffffffffffffffffffffffff167fddf252ad1be2c89b69c2b068fc378daa952ba7f163c4a11628f55a4df523b3ef60405160405180910390a46113ab8383836001611a8b565b505050565b60006002600083815260200190815260200160002060009054906101000a900473ffffffffffffffffffffffffffffffffffffffff169050919050565b6000600760009054906101000a900473ffffffffffffffffffffffffffffffffffffffff16905081600760006101000a81548173ffffffffffffffffffffffffffffffffffffffff021916908373ffffffffffffffffffffffffffffffffffffffff1602179055508173ffffffffffffffffffffffffffffffffffffffff168173ffffffffffffffffffffffffffffffffffffffff167f8be0079c531659141344cd1fd0a4f28419497f9722a3daafe3b4186f6b6457e060405160405180910390a35050565b8173ffffffffffffffffffffffffffffffffffffffff168373ffffffffffffffffffffffffffffffffffffffff161415611522576040517f08c379a00000000000000000000000000000000000000000000000000000000081526004016115199061281b565b60405180910390fd5b80600560008573ffffffffffffffffffffffffffffffffffffffff1673ffffffffffffffffffffffffffffffffffffffff16815260200190815260200160002060008473ffffffffffffffffffffffffffffffffffffffff1673ffffffffffffffffffffffffffffffffffffffff16815260200190815260200160002060006101000a81548160ff0219169083151502179055508173ffffffffffffffffffffffffffffffffffffffff168373ffffffffffffffffffffffffffffffffffffffff167f17307eab39ab6107e8899845ad3d59bd9653f200f220920489ca2b5937696c3183604051611613919061271e565b60405180910390a3505050565b6001816000016000828254019250508190555050565b600073ffffffffffffffffffffffffffffffffffffffff168273ffffffffffffffffffffffffffffffffffffffff1614156116a6576040517f08c379a000000000000000000000000000000000000000000000000000000000815260040161169d9061289b565b60405180910390fd5b6116af81611a44565b156116ef576040517f08c379a00000000000000000000000000000000000000000000000000000000081526004016116e6906127db565b60405180910390fd5b6116fd600083836001611a85565b61170681611a44565b15611746576040517f08c379a000000000000000000000000000000000000000000000000000000000815260040161173d906127db565b60405180910390fd5b6001600360008473ffffffffffffffffffffffffffffffffffffffff1673ffffffffffffffffffffffffffffffffffffffff16815260200190815260200160002060008282540192505081905550816002600083815260200190815260200160002060006101000a81548173ffffffffffffffffffffffffffffffffffffffff021916908373ffffffffffffffffffffffffffffffffffffffff160217905550808273ffffffffffffffffffffffffffffffffffffffff16600073ffffffffffffffffffffffffffffffffffffffff167fddf252ad1be2c89b69c2b068fc378daa952ba7f163c4a11628f55a4df523b3ef60405160405180910390a4611850600083836001611a8b565b5050565b61185d82611a44565b61189c576040517f08c379a00000000000000000000000000000000000000000000000000000000081526004016118939061287b565b60405180910390fd5b806006600084815260200190815260200160002090805190602001906118c3929190611e76565b507ff8e1a15aba9398e019f0b49df1a4fde98ee17ae345cb5f6b5e2c27f5033e8ce7826040516118f3919061295b565b60405180910390a15050565b61190a8484846110b6565b61191684848484611a91565b611955576040517f08c379a000000000000000000000000000000000000000000000000000000000815260040161194c9061277b565b60405180910390fd5b50505050565b606060405180602001604052806000815250905090565b606061197d82610e89565b600061198761195b565b905060008151116119a757604051806020016040528060008152506119d2565b806119b184611c28565b6040516020016119c2929190612693565b6040516020818303038152906040525b915050919050565b60007f01ffc9a7000000000000000000000000000000000000000000000000000000007bffffffffffffffffffffffffffffffffffffffffffffffffffffffff1916827bffffffffffffffffffffffffffffffffffffffffffffffffffffffff1916149050919050565b60008073ffffffffffffffffffffffffffffffffffffffff16611a66836113b0565b73ffffffffffffffffffffffffffffffffffffffff1614159050919050565b50505050565b50505050565b6000611ab28473ffffffffffffffffffffffffffffffffffffffff16611d00565b15611c1b578373ffffffffffffffffffffffffffffffffffffffff1663150b7a02611adb610ed4565b8786866040518563ffffffff1660e01b8152600401611afd94939291906126d2565b602060405180830381600087803b158015611b1757600080fd5b505af1925050508015611b4857506040513d601f19601f82011682018060405250810190611b4591906122dd565b60015b611bcb573d8060008114611b78576040519150601f19603f3d011682016040523d82523d6000602084013e611b7d565b606091505b50600081511415611bc3576040517f08c379a0000000000000000000000000000000000000000000000000000000008152600401611bba9061277b565b60405180910390fd5b805181602001fd5b63150b7a0260e01b7bffffffffffffffffffffffffffffffffffffffffffffffffffffffff1916817bffffffffffffffffffffffffffffffffffffffffffffffffffffffff191614915050611c20565b600190505b949350505050565b606060006001611c3784611d23565b01905060008167ffffffffffffffff811115611c5657611c55612bb7565b5b6040519080825280601f01601f191660200182016040528015611c885781602001600182028036833780820191505090505b509050600082602001820190505b600115611cf5578080600190039150507f3031323334353637383961626364656600000000000000000000000000000000600a86061a8153600a8581611cdf57611cde612b59565b5b0494506000851415611cf057611cf5565b611c96565b819350505050919050565b6000808273ffffffffffffffffffffffffffffffffffffffff163b119050919050565b600080600090507a184f03e93ff9f4daa797ed6e38ed64bf6a1f0100000000000000008310611d81577a184f03e93ff9f4daa797ed6e38ed64bf6a1f0100000000000000008381611d7757611d76612b59565b5b0492506040810190505b6d04ee2d6d415b85acef81000000008310611dbe576d04ee2d6d415b85acef81000000008381611db457611db3612b59565b5b0492506020810190505b662386f26fc100008310611ded57662386f26fc100008381611de357611de2612b59565b5b0492506010810190505b6305f5e1008310611e16576305f5e1008381611e0c57611e0b612b59565b5b0492506008810190505b6127108310611e3b576127108381611e3157611e30612b59565b5b0492506004810190505b60648310611e5e5760648381611e5457611e53612b59565b5b0492506002810190505b600a8310611e6d576001810190505b80915050919050565b828054611e8290612af6565b90600052602060002090601f016020900481019282611ea45760008555611eeb565b82601f10611ebd57805160ff1916838001178555611eeb565b82800160010185558215611eeb579182015b82811115611eea578251825591602001919060010190611ecf565b5b509050611ef89190611efc565b5090565b5b80821115611f15576000816000905550600101611efd565b5090565b6000611f2c611f278461299b565b612976565b905082815260208101848484011115611f4857611f47612beb565b5b611f53848285612ab4565b509392505050565b6000611f6e611f69846129cc565b612976565b905082815260208101848484011115611f8a57611f89612beb565b5b611f95848285612ab4565b509392505050565b600081359050611fac81612ff1565b92915050565b600081359050611fc181613008565b92915050565b600081359050611fd68161301f565b92915050565b600081519050611feb8161301f565b92915050565b600082601f83011261200657612005612be6565b5b8135612016848260208601611f19565b91505092915050565b600082601f83011261203457612033612be6565b5b8135612044848260208601611f5b565b91505092915050565b60008135905061205c81613036565b92915050565b60006020828403121561207857612077612bf5565b5b600061208684828501611f9d565b91505092915050565b600080604083850312156120a6576120a5612bf5565b5b60006120b485828601611f9d565b92505060206120c585828601611f9d565b9150509250929050565b6000806000606084860312156120e8576120e7612bf5565b5b60006120f686828701611f9d565b935050602061210786828701611f9d565b92505060406121188682870161204d565b9150509250925092565b6000806000806080858703121561213c5761213b612bf5565b5b600061214a87828801611f9d565b945050602061215b87828801611f9d565b935050604061216c8782880161204d565b925050606085013567ffffffffffffffff81111561218d5761218c612bf0565b5b61219987828801611ff1565b91505092959194509250565b600080604083850312156121bc576121bb612bf5565b5b60006121ca85828601611f9d565b92505060206121db85828601611fb2565b9150509250929050565b6000806000606084860312156121fe576121fd612bf5565b5b600061220c86828701611f9d565b935050602084013567ffffffffffffffff81111561222d5761222c612bf0565b5b6122398682870161201f565b925050604084013567ffffffffffffffff81111561225a57612259612bf0565b5b6122668682870161201f565b9150509250925092565b6000806040838503121561228757612286612bf5565b5b600061229585828601611f9d565b92505060206122a68582860161204d565b9150509250929050565b6000602082840312156122c6576122c5612bf5565b5b60006122d484828501611fc7565b91505092915050565b6000602082840312156122f3576122f2612bf5565b5b600061230184828501611fdc565b91505092915050565b6000602082840312156123205761231f612bf5565b5b600061232e8482850161204d565b91505092915050565b6000806040838503121561234e5761234d612bf5565b5b600061235c8582860161204d565b925050602083013567ffffffffffffffff81111561237d5761237c612bf0565b5b6123898582860161201f565b9150509250929050565b61239c81612a40565b82525050565b6123ab81612a52565b82525050565b60006123bc826129fd565b6123c68185612a13565b93506123d6818560208601612ac3565b6123df81612bfa565b840191505092915050565b60006123f582612a08565b6123ff8185612a24565b935061240f818560208601612ac3565b61241881612bfa565b840191505092915050565b600061242e82612a08565b6124388185612a35565b9350612448818560208601612ac3565b80840191505092915050565b6000612461602d83612a24565b915061246c82612c0b565b604082019050919050565b6000612484603283612a24565b915061248f82612c5a565b604082019050919050565b60006124a7602683612a24565b91506124b282612ca9565b604082019050919050565b60006124ca602583612a24565b91506124d582612cf8565b604082019050919050565b60006124ed601c83612a24565b91506124f882612d47565b602082019050919050565b6000612510602483612a24565b915061251b82612d70565b604082019050919050565b6000612533601983612a24565b915061253e82612dbf565b602082019050919050565b6000612556601783612a24565b915061256182612de8565b602082019050919050565b6000612579602983612a24565b915061258482612e11565b604082019050919050565b600061259c602e83612a24565b91506125a782612e60565b604082019050919050565b60006125bf602083612a24565b91506125ca82612eaf565b602082019050919050565b60006125e2602083612a24565b91506125ed82612ed8565b602082019050919050565b6000612605601883612a24565b915061261082612f01565b602082019050919050565b6000612628602183612a24565b915061263382612f2a565b604082019050919050565b600061264b603d83612a24565b915061265682612f79565b604082019050919050565b600061266e601283612a24565b915061267982612fc8565b602082019050919050565b61268d81612aaa565b82525050565b600061269f8285612423565b91506126ab8284612423565b91508190509392505050565b60006020820190506126cc6000830184612393565b92915050565b60006080820190506126e76000830187612393565b6126f46020830186612393565b6127016040830185612684565b818103606083015261271381846123b1565b905095945050505050565b600060208201905061273360008301846123a2565b92915050565b6000602082019050818103600083015261275381846123ea565b905092915050565b6000602082019050818103600083015261277481612454565b9050919050565b6000602082019050818103600083015261279481612477565b9050919050565b600060208201905081810360008301526127b48161249a565b9050919050565b600060208201905081810360008301526127d4816124bd565b9050919050565b600060208201905081810360008301526127f4816124e0565b9050919050565b6000602082019050818103600083015261281481612503565b9050919050565b6000602082019050818103600083015261283481612526565b9050919050565b6000602082019050818103600083015261285481612549565b9050919050565b600060208201905081810360008301526128748161256c565b9050919050565b600060208201905081810360008301526128948161258f565b9050919050565b600060208201905081810360008301526128b4816125b2565b9050919050565b600060208201905081810360008301526128d4816125d5565b9050919050565b600060208201905081810360008301526128f4816125f8565b9050919050565b600060208201905081810360008301526129148161261b565b9050919050565b600060208201905081810360008301526129348161263e565b9050919050565b6000602082019050818103600083015261295481612661565b9050919050565b60006020820190506129706000830184612684565b92915050565b6000612980612991565b905061298c8282612b28565b919050565b6000604051905090565b600067ffffffffffffffff8211156129b6576129b5612bb7565b5b6129bf82612bfa565b9050602081019050919050565b600067ffffffffffffffff8211156129e7576129e6612bb7565b5b6129f082612bfa565b9050602081019050919050565b600081519050919050565b600081519050919050565b600082825260208201905092915050565b600082825260208201905092915050565b600081905092915050565b6000612a4b82612a8a565b9050919050565b60008115159050919050565b60007fffffffff0000000000000000000000000000000000000000000000000000000082169050919050565b600073ffffffffffffffffffffffffffffffffffffffff82169050919050565b6000819050919050565b82818337600083830152505050565b60005b83811015612ae1578082015181840152602081019050612ac6565b83811115612af0576000848401525b50505050565b60006002820490506001821680612b0e57607f821691505b60208210811415612b2257612b21612b88565b5b50919050565b612b3182612bfa565b810181811067ffffffffffffffff82111715612b5057612b4f612bb7565b5b80604052505050565b7f4e487b7100000000000000000000000000000000000000000000000000000000600052601260045260246000fd5b7f4e487b7100000000000000000000000000000000000000000000000000000000600052602260045260246000fd5b7f4e487b7100000000000000000000000000000000000000000000000000000000600052604160045260246000fd5b600080fd5b600080fd5b600080fd5b600080fd5b6000601f19601f8301169050919050565b7f4552433732313a2063616c6c6572206973206e6f7420746f6b656e206f776e6560008201527f72206f7220617070726f76656400000000000000000000000000000000000000602082015250565b7f4552433732313a207472616e7366657220746f206e6f6e20455243373231526560008201527f63656976657220696d706c656d656e7465720000000000000000000000000000602082015250565b7f4f776e61626c653a206e6577206f776e657220697320746865207a65726f206160008201527f6464726573730000000000000000000000000000000000000000000000000000602082015250565b7f4552433732313a207472616e736665722066726f6d20696e636f72726563742060008201527f6f776e6572000000000000000000000000000000000000000000000000000000602082015250565b7f4552433732313a20746f6b656e20616c7265616479206d696e74656400000000600082015250565b7f4552433732313a207472616e7366657220746f20746865207a65726f2061646460008201527f7265737300000000000000000000000000000000000000000000000000000000602082015250565b7f4552433732313a20617070726f766520746f2063616c6c657200000000000000600082015250565b7f546f6b656e20494420646f6573206e6f74206578697374000000000000000000600082015250565b7f4552433732313a2061646472657373207a65726f206973206e6f74206120766160008201527f6c6964206f776e65720000000000000000000000000000000000000000000000602082015250565b7f45524337323155524953746f726167653a2055524920736574206f66206e6f6e60008201527f6578697374656e7420746f6b656e000000000000000000000000000000000000602082015250565b7f4552433732313a206d696e7420746f20746865207a65726f2061646472657373600082015250565b7f4f776e61626c653a2063616c6c6572206973206e6f7420746865206f776e6572600082015250565b7f4552433732313a20696e76616c696420746f6b656e2049440000000000000000600082015250565b7f4552433732313a20617070726f76616c20746f2063757272656e74206f776e6560008201527f7200000000000000000000000000000000000000000000000000000000000000602082015250565b7f4552433732313a20617070726f76652063616c6c6572206973206e6f7420746f60008201527f6b656e206f776e6572206f7220617070726f76656420666f7220616c6c000000602082015250565b7f4d617820737570706c7920726561636865640000000000000000000000000000600082015250565b612ffa81612a40565b811461300557600080fd5b50565b61301181612a52565b811461301c57600080fd5b50565b61302881612a5e565b811461303357600080fd5b50565b61303f81612aaa565b811461304a57600080fd5b5056fea264697066735822122058c202e512ea1f824f0918bc3d65b08a84e9f08471fc184661db9417031033ee64736f6c63430008060033",
  "linkReferences": {},
  "deployedLinkReferences": {}
}